:02000002D0002C
:1040000000400D00105F0D00000006000C000501CF
:08401000040115050000000089
:104018003C5B0D0009480A49884208B505D0094AA1
:10402800824202D0121A01F041FD0748074A0021D6
:10403800121A01F046FD014808BD00BF58E30320ED
:10404800805E0D00C0E30320C0E30320F0E70320F7
:1040580070B500F0F3FB074C074BE41AA4080025E1
:104068001E46A54204D056F8253098470135F8E792
:1040780070BD00BF7C5E0D003C5E0D0000F014B802
:1040880008B500F03FF8BDE8084000F0A5BB00F017
:104098005DBA00F05BBA0078B0FA80F0400970476A
:1040A800012303707047000013B50021072000F0BA
:1040B8004FFF012000F040FB02A8002440F8044D07
:1040C8002246214600F0B6F8019B3C2B09D1224636
:1040D8002146FF2000F040FB4FF0FF3000F01AFBB4
:1040E80004E0FF222146204600F036FB41F28831E9
:1040F800034800F029F8024800F042F802B010BD69
:10410800C4E3032008B5072000F033FF20B90348B3
:10411800BDE8084000F034B808BD00BFC4E3032080
:1041280008B500F047F8064B00221A705A804FF67F
:10413800FF729A800320BDE8084000F083B900BFF1
:10414800C6E30320000000000B4B10B501241C60DF
:10415800084601F0F5F906A3D3E9002301F066FA51
:1041680001F076FC054B1860A3F204531C6010BDE7
:10417800FCA9F1D24D624040080501400405014008
:10418800014B024A1A607047000601403546526EDC
:1041980000F010B808B5024B1B689B68019308BD76
:1041A8006802030008B5024B1B68DB68019308BD71
:1041B8006802030008B5024B1B681B68019308BD21
:1041C8002C02030008B5024B1B689B68019308BDCD
:1041D8002C02030008B5024B1B68DB68019308BD7D
:1041E8002C02030008B5024B1B685B69019308BDEC
:1041F8002C02030008B5024B1B68DB69019308BD5C
:104208003002030008B5024B1B681B6A019308BD06
:104218003002030008B5024B1B685B68019308BDB8
:104228001802030008B5024B1B685B69019308BDBF
:104238001802030008B5024B1B68DB6E019308BD2A
:104248003402030008B5024B1B689B68019308BD44
:104258004802030008B5024B1B681B69019308BD9F
:104268004802030008B5024B1B685B69019308BD4F
:104278004802030008B5024B1B681B6B019308BD7D
:104288004802030008B5024B1B685B6C019308BD2C
:104298004802030008B5024B1B685B69019308BD1F
:1042A8006402030008B5024B1B681B68019308BD34
:1042B8003C02030008B5024B1B68DB68019308BD8C
:1042C8003C02030008B5024B1B681B69019308BD3B
:1042D8003C02030008B5024B1B685B69019308BDEB
:1042E8003C02030008B5024B1B689B69019308BD9B
:1042F8003C02030008B5024B1B68DB69019308BD4B
:104308003C02030008B5024B1B681B6A019308BDF9
:104318003C02030008B5024B1B689B6A019308BD69
:104328003C02030008B5024B1B681B6A019308BDD9
:104338002802030008B5024B1B685B6A019308BD9D
:104348002802030008B5024B1B689B6A019308BD4D
:104358002802030008B5024B1B68DB6A019308BDFD
:104368002802030008B5024B1B681B6B019308BDAC
:104378002802030008B5024B1B685B6B019308BD5C
:104388002802030008B5024B1B681B6C019308BD8B
:104398002802030008B5024B1B681B68019308BD7F
:1043A8004C02030008B5024B1B681B69019308BD4A
:1043B8004C02030008B5024B1B685B69019308BDFA
:1043C8004C02030008B5024B1B689B69019308BDAA
:1043D8004C02030008B5024B1B68DB69019308BD5A
:1043E8004C02030008B5024B1B681B6A019308BD09
:1043F8004C02030008B5024B1B685B68019308BDBB
:104408006002030008B5024B1B689B68019308BD56
:104418006002030008B5024B1B68DB68019308BD06
:104428006002030008B5024B1B689B69019308BD35
:104438006002030008B5024B1B68DB69019308BDE5
:104448006002030008B5024B1B685B68019308BD56
:104458002002030008B5024B1B685B69019308BD85
:104468002002030008B5034B1B68D3F8883001937A
:1044780008BD00002002030008B5034B1B68D3F8F1
:104488009430019308BD00002002030008B5024BD8
:104498001B685B68019308BD4002030008B5024B26
:1044A8001B689B68019308BD4002030008B5024BD6
:1044B8001B68DB68019308BD4002030008B5024B86
:1044C8001B681B69019308BD4002030008B5024B35
:1044D8001B685B69019308BD4002030008B5024BE5
:1044E8001B689B69019308BD4002030008B5024B95
:1044F8001B68DB69019308BD4002030008B5024B45
:104508001B681B6A019308BD4002030008B5024BF3
:104518001B681B6B019308BD4002030008B5024BE2
:104528001B685B6B019308BD4002030008B5024B92
:104538001B68DB6B019308BD4402030008B5024BFE
:104548001B681B68019308BD1C02030008B5024BD9
:104558001B685B68019308BD1C020300002211461A
:104568004068FFF7CBBF002211464068FFF7D6BF6F
:1045780000224068FFF7CABF002281F001014068AD
:10458800FFF7B4BF00231A4619464068FFF7A6BFD5
:1045980000231A4619464068FFF798BF00221146C3
:1045A8004068FFF78BBF002211464068FFF776BFCF
:1045B800002202214068FFF779BF00231A464068AD
:1045C800FFF764BF024B03225A60024A1A60704721
:1045D800CCE30320585B0D00704710B5102104464A
:1045E80000F021FD204610BD70B5084B036004465D
:1045F80000250E4640F80C5FFFF73CFE304626715A
:10460800FFF7F8FDA560204670BD00BF8C5B0D006C
:104618000079FFF7F7BD0000044B00204FF6FF724A
:10462800187058809A80FFF70DBF00BFD4E30320AD
:10463800024800230360FFF725BE00BFDCE3032028
:10464800F8B506460D468F180024BD420CD03368D5
:1046580015F8011B9B6830469847002801DB044485
:10466800F3E7002C08BF04462046F8BD70B50546A0
:104678000C46084649B101F055FA2B680246214616
:104688002846DB68BDE87040184770BD03689B6822
:10469800184730B58BB00B4600218DF82410012A3D
:1046A80098BF0A220DF12304B3FBF2F505FB123380
:1046B80003F0FF03092B94BF30333733DBB22146B5
:1046C80004F801392B46002DEED1FFF7CFFF0BB0D0
:1046D80030BD10B42AB903685DF8044B9B68C9B2B1
:1046E8001847D2B25DF8044BFFF7D3BFFFF7F1BF0D
:1046F800014B024A1A607047E0E303204C5C0D004E
:10470800024B1A68024B1A60704700BF58E3032037
:10471800E4E303200021FFF79DBE10B5836804463B
:1047280013B1032201469847204610BD10B5044630
:10473800FFF7F3FF204610BD10B50446FFF772FEE1
:10474800844208D01CB1BDE81040FFF75BBEBDE84D
:104758001040FFF75FBE10BD70B505460E46144603
:10476800FFF760FE50B144EA062040EA0540FFF733
:1047780041FEE720BDE87040FFF75CBE70BD000059
:104788000348044A04490023836000F047BC00BF83
:10479800E8E30320C0E3032035470D0008B50C4BC0
:1047A80033B100F035F903681B699847002809DC24
:1047B800084B63B100F0AEF903681B6998470028FD
:1047C80003DC08BDAFF30080F2E7AFF3008008BD5B
:1047D800000000000000000008B5FFF7DFFFFFF74A
:1047E80021FD014B186008BD34E7032007B50023FD
:1047F80000931A466FF07701FFF73EFE03B05DF8AD
:1048080004FB000007B543880A2B08D0502B09D1B8
:10481800094B1B683BB103B05DF804EB1847FFF781
:10482800E5FF06E0002300931A466FF07701FFF7D3
:1048380023FE03B05DF804FBF8E3032010B5FFF78F
:10484800E9FC044601F046F9074B13B12046AFF3E3
:10485800008000210448FFF769FE00210348BDE8F5
:104868001040FFF7FFBD00BF000000000D480D001D
:10487800704710B51821044600F0D5FB204610BD3E
:10488800F0B5037D062B8DB00E4600F104074FF0FE
:10489800000402D000F1080518E00CAD394605F80F
:1048A800304D2F232A460A20FFF7F4FC284601F052
:1048B80039F933680246DB682946304698470FE0E5
:1048C80024B12E213046FFF7E1FE044415F8011DFE
:1048D8000A223046FFF70AFFBD420444F0D12046C1
:1048E8000DB0F0BD10B5054B0446112240F8043B4D
:1048F800002101F0E6F8204610BD00BFA85C0D00BD
:104908000346074A10B543F8042B01F1100251F889
:10491800044B43F8044B9142F9D10A781A7010BD40
:10492800A85C0D0010B59DF8084044EA032343EA4B
:10493800024242EA016104234160037510BD37B5A4
:104948000D788B784A78C97800912946FFF7EAFFF5
:1049580003B030BD41747047704708B50021007C32
:10496800FFF730FD30EA200028BF4FF0FF3008BDC8
:1049780008B50121007CFFF725FD30EA200028BF9B
:104988004FF0FF3008BD08B5007CFFF713FD20EAA3
:10499800E07008BD08B5007CFFF704FD20EAE07070
:1049A80008BD007CFFF71EBD10B51421044600F0B9
:1049B8003AFB204610BD38B50446007C0D46FFF78B
:1049C800F9FC002801DC607C28B12946207CFFF72F
:1049D80001FD20EAE07038BD10B50446002363608D
:1049E8004FF47A73A360054B2360012308462174B2
:1049F80063741146FFF7CEFC204610BDBC5C0D0069
:104A080010B514220446002101F05BF8204610BDC1
:104A180030B50E4D87B001A8FFF7F2FF296811F0F5
:104A2800010410D12846FFF736FB60B101AA2146E0
:104A38000748FFF7D1FF2846FFF732FB054A06492A
:104A4800034800F0EBFA024807B030BDFCE303204E
:104A580000E40320C0E3032061490D00704741745E
:104A6800704708B5007CFFF755FC20EAE07008BDE8
:104A780008B5007CFFF726FC20EAE07008BD08B501
:104A8800007CFFF72FFC30EA200028BF4FF0FF30F2
:104A980008BD08B5007CFFF71DFC30EA200028BFE0
:104AA8004FF0FF3008BD007CFFF724BC10B514217F
:104AB800044600F0B8FA204610BD70B5457C04469F
:104AC8000E4625B9007CFFF725FC002805DD314698
:104AD800207CBDE87040FFF7EDBB284670BD0000A4
:104AE80010B5044608461146002262604FF47A72F7
:104AF800A260054A22600122207462741A46FFF7F8
:104B0800D1FB204610BD00BFEC5C0D00007CFFF718
:104B1800F9BB000038B50C4D296811F0010411D11A
:104B28002846FFF7B8FA68B1084A094B09482146F0
:104B3800FFF7D6FF2846FFF7B3FA074A07490548A3
:104B480000F06CFA034838BDACE40320B0E403205D
:104B580028E4032014E40320C0E30320654A0D0081
:104B68007047F8B5064615460C468F18BC4206D065
:104B7800336814F8011B9B6830469847F6E72846C7
:104B8800F8BD0022007CFFF7CDBB0021007CFFF7B9
:104B9800D1BB0021007CFFF7D5BB0021007CFFF7CB
:104BA800D9BB0021007CFFF7DDBB10B514210446FA
:104BB80000F039FA204610BD10B504464FF47A7358
:104BC8000846A3600021044B207461602360FFF74E
:104BD800D9FB204610BD00BF1C5D0D000021007CE4
:104BE800FFF7C8BB002211464068FFF787BC0022C8
:104BF80011464068FFF792BC00224068FFF786BC68
:104C0800002281F001014068FFF770BC00231A46BA
:104C180019464068FFF762BC00231A4619464068E7
:104C2800FFF754BC002211464068FFF747BC00223A
:104C380011464068FFF732BC002202214068FFF7A6
:104C480035BC00231A464068FFF720BC38B5054636
:104C580088B104684CB1A3681BB1032221462046E1
:104C680098471021204600F0DEF928461421BDE8B7
:104C7800384000F0D8B938BD10B103685B681847F0
:104C8800704710B503680446BBB15868FFF7DAFAF5
:104C980078B923685A7C12B95868FFF7DBFA236899
:104CA8005868FFF7DFFA20680023236028B1FFF770
:104CB800CDFF206808B1FFF7C9FF204610BD0000EE
:104CC80038B50C4B03600446D0F8CC0108B1FFF7A7
:104CD800E0F9D4F8C45135B12846FFF7D2FF0421D2
:104CE800284600F0A0F9A06808B1FFF7C5FF2046E4
:104CF80038BD00BF445D0D0038B50D4C0D4B236029
:104D08000025022304F5E4706360A560C4F8C4516B
:104D1800C4F8C851FFF7B6FA074BC4F8CC51236062
:104D28002046064A0649BDE8384000F077B900BF7A
:104D380034E50320AC5D0D00445D0D00C0E30320A5
:104D4800C94C0D00002211464068FFF7B7BB00228E
:104D580011464068FFF7D2BB002211464068FFF7B2
:104D6800DDBB00224068FFF7D1BB002281F00101C2
:104D78004068FFF7BBBB00231A4619464068FFF797
:104D8800ADBB00231A4619464068FFF79FBB0022B7
:104D980011464068FFF782BB002202214068FFF7F6
:104DA80085BB00231A464068FFF770BB024B0422FC
:104DB8005A60024A1A60704704E70320785D0D00C4
:104DC80000231A464068FFF761BB002202214068B1
:104DD800FFF76CBB002211464068FFF75FBB00225B
:104DE80011464068FFF76ABB00231A461946406817
:104DF800FFF76CBB00231A4619464068FFF76EBBE5
:104E0800002281F001014068FFF770BB0022406872
:104E1800FFF77CBB002211464068FFF77FBB0022EA
:104E280011464068FFF76ABB2DE9F043002495B0AE
:104E380016460D460746FFF755FD214620220CA8C9
:104E4800009400F03EFE40230C9321466B460CAACA
:104E58003046FFF7A7F90446002844D1024601214D
:104E68006868FFF72BFB0221804622466868FFF737
:104E780025FB009E81462146002E34D0002932D1E0
:104E88007368022B02D00A2B09D02AE0B8F1000F70
:104E980027D0716938460431FFF751FD20E0B9F198
:104EA800000F1ED07469112201A800F00AFE062323
:104EB8008DF8143001AD04F10803183418685968E6
:104EC8002A4603C20833A3421546F7D101A906A80A
:104ED80007ADFFF715FD0FCD3C1D0FC42B682370E0
:104EE8000121F669C8E70098FFF754F9384615B06C
:104EF800BDE8F083024B034A1A6000225A607047EB
:104F08000CE70320AC5D0D0010B504460F48FFF711
:104F18007FFB28B1A4F10B03022B01D8002010BDA0
:104F280000F05CF8FFF75AFE08B1012CF6D9FFF73C
:104F3800F1FDFFF7EBFD18B1A4F10903012BEDD941
:104F4800232C8CBF0020012010BD00BF14E70320D4
:104F5800232838B504460D460AD8FF2908D0FFF79C
:104F6800D3FF28B129462046BDE83840FFF72AB9C3
:104F780038BD10B50446FFF72DF90438C0B2012832
:104F880008D92046FFF7C0FF20B12046BDE81040F1
:104F9800FFF728B9002010BD70B50C4C0C4E0D4D14
:104FA80000212046FFF720FB20460B4C32462946BD
:104FB80000F034F801212046FFF716FB3246294657
:104FC8002046BDE8704000F029B800BF14E7032070
:104FD800C0E30320E1450D0024E7032038B50B4D5D
:104FE800296811F001040FD12846FFF754F858B189
:104FF80021460748FFF7E0FD2846FFF751F8054A24
:105008000549034800F00AF8014838BD38E703208D
:105018003CE70320C0E30320694B0D000B46014623
:10502800184600F035BDFFF732B80000184B1A6873
:10503800D1075CBF01221A60164B1A68D2075CBF01
:1050480001221A60144B1A68D0075CBF01221A604B
:10505800124B1A68D1075CBF01221A60104B1A68FC
:10506800D2075CBF01221A600E4B1A68D0075CBFDA
:1050780001221A600C4B1A68D1075CBF01221A6022
:105088000A4B1A68D2075CBF01221A60704700BF3A
:105098006CE7032068E7032064E7032060E7032048
:1050A8005CE7032058E7032054E7032050E7032078
:1050B800244B1A68D0075CBF01221A60224B1A6879
:1050C800D1075CBF01221A60204B1A68D2075CBF67
:1050D80001221A601E4B1A68D0075CBF01221A60B1
:1050E8001C4B1A68D1075CBF01221A601A4B1A6858
:1050F800D2075CBF01221A60184B1A68D0075CBF40
:1051080001221A60164B1A68D1075CBF01221A6087
:10511800144B1A68D2075CBF01221A60124B1A6836
:10512800D0075CBF01221A60104B1A68D1075CBF18
:1051380001221A600E4B1A68D2075CBF01221A605E
:10514800704700BF9CE7032098E7032094E70320FB
:1051580090E703208CE7032088E7032084E70320F7
:1051680080E703207CE7032078E7032074E7032027
:1051780070E70320244B1A68D0075CBF01221A602D
:10518800224B1A68D1075CBF01221A60204B1A68AB
:10519800D2075CBF01221A601E4B1A68D0075CBF99
:1051A80001221A601C4B1A68D1075CBF01221A60E1
:1051B8001A4B1A68D2075CBF01221A60184B1A688A
:1051C800D0075CBF01221A60164B1A68D1075CBF72
:1051D80001221A60144B1A68D2075CBF01221A60B8
:1051E800124B1A68D0075CBF01221A60104B1A686C
:1051F800D1075CBF01221A600E4B1A68D2075CBF48
:1052080001221A60704700BFCCE70320C8E70320DB
:10521800C4E70320C0E70320BCE70320B8E7032066
:10522800B4E70320B0E70320ACE70320A8E7032096
:10523800A4E70320A0E70320184B1A68D1075CBF36
:1052480001221A60164B1A68D2075CBF01221A6045
:10525800144B1A68D0075CBF01221A60124B1A68F7
:10526800D1075CBF01221A60104B1A68D2075CBFD5
:1052780001221A600E4B1A68D0075CBF01221A601F
:105288000C4B1A68D1075CBF01221A600A4B1A68D6
:10529800D2075CBF01221A60704700BFECE7032009
:1052A800E8E70320E4E70320E0E70320DCE7032046
:1052B800D8E70320D4E70320D0E7032081F000419A
:1052C80002E000BF83F0004330B54FEA41044FEAE3
:1052D800430594EA050F08BF90EA020F1FBF54EA7E
:1052E800000C55EA020C7FEA645C7FEA655C00F01A
:1052F800E2804FEA5454D4EB5555B8BF6D420CDDEB
:105308002C4480EA020281EA030382EA000083EA6D
:10531800010180EA020281EA0303362D88BF30BD0D
:1053280011F0004F4FEA01314FF4801C4CEA113163
:1053380002D0404261EB410113F0004F4FEA0333C2
:105348004CEA133302D0524263EB430394EA050F4D
:1053580000F0A780A4F10104D5F1200E0DDB02FABC
:105368000EFC22FA05F2801841F1000103FA0EF250
:10537800801843FA05F359410EE0A5F120050EF116
:10538800200E012A03FA0EFC28BF4CF0020C43FA47
:1053980005F3C01851EBE37101F0004507D54FF054
:1053A800000EDCF1000C7EEB00006EEB0101B1F5A4
:1053B800801F1BD3B1F5001F0CD349085FEA3000EA
:1053C8004FEA3C0C04F101044FEA445212F5800FF5
:1053D80080F09A80BCF1004F08BF5FEA500C50F192
:1053E800000041EB045141EA050130BD5FEA4C0C75
:1053F800404141EB010111F4801FA4F10104E9D1FE
:1054080091F0000F04BF01460020B1FA81F308BFF4
:105418002033A3F10B03B3F120020CDA0C3208DDC0
:1054280002F1140CC2F10C0201FA0CF021FA02F19B
:105438000CE002F11402D8BFC2F1200C01FA02F10B
:1054480020FA0CFCDCBF41EA0C019040E41AA2BF30
:1054580001EB0451294330BD6FEA04041F3C1CDAF8
:105468000C340EDC04F11404C4F1200220FA04F018
:1054780001FA02F340EA030021FA04F345EA0301C2
:1054880030BDC4F10C04C4F1200220FA02F001FA84
:1054980004F340EA0300294630BD21FA04F0294606
:1054A80030BD94F0000F83F4801306BF81F480119F
:1054B8000134013D4EE77FEA645C18BF7FEA655C12
:1054C80029D094EA050F08BF90EA020F05D054EAE4
:1054D800000C04BF1946104630BD91EA030F1EBFE9
:1054E8000021002030BD5FEA545C05D140004941ED
:1054F80028BF41F0004130BD14F580043CBF01F5E0
:10550800801130BD01F0004545F0FE4141F47001C5
:105518004FF0000030BD7FEA645C1ABF19461046A0
:105528007FEA655C1CBF0B46024650EA013406BFA1
:1055380052EA033591EA030F41F4002130BD00BF60
:1055480090F0000F04BF0021704730B54FF480641D
:1055580004F132044FF000054FF0000150E700BF9E
:1055680090F0000F04BF0021704730B54FF48064FD
:1055780004F1320410F0004548BF40424FF00001EA
:105588003EE700BF42004FEAE2014FEA31014FEA2D
:1055980002701FBF12F07F4393F07F4F81F060517C
:1055A800704792F0000F14BF93F07F4F704730B5EB
:1055B8004FF4607401F0004521F0004120E700BF7E
:1055C80050EA010208BF704730B54FF000050AE005
:1055D80050EA010208BF704730B511F0004502D506
:1055E800404261EB41014FF4806404F132045FEA08
:1055F800915C3FF4DCAE4FF003025FEADC0C18BFAD
:1056080003325FEADC0C18BF033202EBDC02C2F1A2
:10561800200300FA03FC20FA02F001FA03FE40EA34
:105628000E0021FA02F11444C1E600BF70B54FF034
:10563800FF0C4CF4E06C1CEA11541DBF1CEA135516
:1056480094EA0C0F95EA0C0F00F0DEF82C4481EA7E
:10565800030621EA4C5123EA4C5350EA013518BF9E
:1056680052EA033541F4801143F4801338D0A0FB8B
:1056780002CE4FF00005E1FB02E506F00042E0FB38
:1056880003E54FF00006E1FB03569CF0000F18BF3E
:105698004EF0010EA4F1FF04B6F5007F64F54074E6
:1056A80004D25FEA4E0E6D4146EB060642EAC62179
:1056B80041EA55514FEAC52040EA5E504FEACE2EE6
:1056C800B4F1FD0C88BFBCF5E06F1ED8BEF1004FE9
:1056D80008BF5FEA500E50F1000041EB045170BD65
:1056E80006F0004646EA010140EA020081EA0301A9
:1056F800B4EB5C04C2BFD4EB0C0541EA045170BDA5
:1057080041F480114FF0000E013C00F3AB8014F11E
:10571800360FDEBF002001F0004170BDC4F1000467
:10572800203C35DA0C341BDC04F11404C4F12005E8
:1057380000FA05F320FA04F001FA05F240EA020043
:1057480001F0004221F0004110EBD37021FA04F679
:1057580042EB06015EEA430E08BF20EAD37070BD33
:10576800C4F10C04C4F1200500FA04F320FA05F092
:1057780001FA04F240EA020001F0004110EBD37094
:1057880041F100015EEA430E08BF20EAD37070BD04
:10579800C4F1200500FA05F24EEA020E20FA04F3DD
:1057A80001FA05F243EA020321FA04F001F000418C
:1057B80021FA04F220EA020000EBD3705EEA430EFD
:1057C80008BF20EAD37070BD94F0000F0FD101F02C
:1057D8000046400041EB010111F4801F08BF013C65
:1057E800F7D041EA060195F0000F18BF704703F0A3
:1057F8000046520043EB030313F4801F08BF013D2A
:10580800F7D043EA0603704794EA0C0F0CEA1355E5
:1058180018BF95EA0C0F0CD050EA410618BF52EA9F
:105828004306D1D181EA030101F000414FF00000A5
:1058380070BD50EA410606BF1046194652EA4306B3
:1058480019D094EA0C0F02D150EA013613D195EA27
:105858000C0F05D152EA03361CBF104619460AD16F
:1058680081EA030101F0004141F0FE4141F4700179
:105878004FF0000070BD41F0FE4141F4780170BD69
:1058880070B54FF0FF0C4CF4E06C1CEA11541DBFCE
:105898001CEA135594EA0C0F95EA0C0F00F0A7F8D0
:1058A800A4EB050481EA030E52EA03354FEA0131FD
:1058B80000F088804FEA03334FF0805545EA131310
:1058C80043EA12634FEA022245EA111545EA1065D8
:1058D8004FEA00260EF000419D4208BF964244F16F
:1058E800FD0404F5407402D25B084FEA3202B61A8E
:1058F80065EB03055B084FEA32024FF480104FF462
:10590800002CB6EB020E75EB030E22BFB61A7546D5
:1059180040EA0C005B084FEA3202B6EB020E75EB68
:10592800030E22BFB61A754640EA5C005B084FEAD0
:105938003202B6EB020E75EB030E22BFB61A75469D
:1059480040EA9C005B084FEA3202B6EB020E75EBA8
:10595800030E22BFB61A754640EADC0055EA060E69
:1059680018D04FEA051545EA16754FEA06164FEAAC
:10597800C30343EA52734FEAC2025FEA1C1CC0D158
:1059880011F4801F0BD141EA00014FF000004FF0E5
:10599800004CB6E711F4801F04BF01430020B4F1A6
:1059A800FD0C88BFBCF5E06F3FF6AFAEB5EB030C5E
:1059B80004BFB6EB020C5FEA500C50F1000041EB5B
:1059C800045170BD0EF0004E4EEA113114EB5C0428
:1059D800C2BFD4EB0C0541EA045170BD41F48011FB
:1059E8004FF0000E013C90E645EA060E8DE60CEA03
:1059F800135594EA0C0F08BF95EA0C0F3FF43BAF20
:105A080094EA0C0F0AD150EA01347FF434AF95EAD6
:105A18000C0F7FF425AF104619462CE795EA0C0FBA
:105A280006D152EA03353FF4FDAE1046194622E787
:105A380050EA410618BF52EA43067FF4C5AE50EA61
:105A480041047FF40DAF52EA43057FF4EBAE12E751
:105A58004A0011D212F5001211D20DD56FF47873E5
:105A6800B3EB62520ED44FEAC12343F0004343EA3A
:105A7800505323FA02F070474FF00000704750EA85
:105A8800013002D14FF0FF3070474FF000007047EF
:105A980010B5054C13462CB10A4601460220AFF357
:105AA800008010BD204610BD0000000010B5431E48
:105AB8000A44914204D011F8014B03F8014FF8E76A
:105AC80010BD02440346934202D003F8011BFAE7D3
:105AD8007047000038B5124B1C68A36B0546D3B954
:105AE8001820FEF72BFD43F20E33A06303804AF61D
:105AF800CD33438041F2342383804EF26D63C380FB
:105B08004DF6EC630381052343810B238381012236
:105B18000023C0E90423A36B00221D615A6138BD2C
:105B2800BCE30320034613F8012B002AFBD1181A03
:105B3800013870471D400D0059400D0085400D008B
:105B480089400D0000000000000000000000000077
:105B5800C3450D00B9450D00AF450D00A5450D0025
:105B680099450D008D450D0081450D0079450D00C5
:105B78006F450D0065450D00314E0D000000000019
:105B880000000000E1450D00E3450D0066006C6E65
:105B980000666E00636F64650064657461696C001B
:105BA8000D0A00253031307520005D200025640085
:105BB8002C200028293A2000205B00636F646520B0
:105BC8003D200025690064657461696C73203D207F
:105BD80000626175640053657269616C0053657297
:105BE80069616C31007479706500706172616D0073
:105BF800636D6400696400686E64007374726D009C
:105C080066696C74006C766C0061646448616E64EB
:105C18006C65720072656D6F766548616E646C655F
:105C28007200656E756D48616E646C657273004ACA
:105C3800534F4E53747265616D4C6F6748616E6463
:105C48006C657200617070006E6F6E6500747261D1
:105C5800636500696E666F007761726E00657272C7
:105C68006F720070616E696300616C6C005A002588
:105C78002B3033643A253032750025592D256D2D8A
:105C880025645425483A254D3A2553257A006173F1
:105C98006374696D650000000000000000000000EA
:105CA80089480D0079480D007B480D000000000070
:105CB8000000000061490D00B1490D00BF490D0009
:105CC80049460D009D490D0063490D0079490D00B5
:105CD800AB490D008F490D005D490D000000000023
:105CE80000000000654A0D00B54A0D00C34A0D00CA
:105CF80049460D00794A0D009B4A0D00874A0D0060
:105D0800AF4A0D00674A0D006B4A0D000000000005
:105D180000000000694B0D00B34B0D008B4B0D00CC
:105D28006B4B0D00934B0D009B4B0D00A34B0D00CF
:105D3800AB4B0D0000000000000000004B4C0D00B4
:105D4800414C0D00374C0D002D4C0D00214C0D0021
:105D5800154C0D00094C0D00014C0D00F74B0D00C2
:105D6800ED4B0D00314E0D0000000000000000005A
:105D7800AB4D0D00A14D0D00974D0D004D4D0D0083
:105D88008B4D0D007F4D0D00734D0D006B4D0D00BB
:105D9800614D0D00574D0D00314E0D000000000003
:105DA80000000000C94D0D00D34D0D00DD4D0D0064
:105DB800E74D0D00F14D0D00FD4D0D00094E0D0094
:105DC800154E0D001D4E0D00274E0D00314E0D00D5
:105DD80000000000000000000000000000000000BB
:105DE80000000000000000000000000000000000AB
:105DF800000000000000000000000000000000009B
:105E0800000000000000000000000000000000008A
:105E1800000000000000000000000000000000007A
:105E2800000000000000000000000000000000006A
:105E38004300000029410D0099410D00CD450D009A
:105E480021460D0039460D00F9460D0009470D00A1
:105E580089470D00014D0D00B54D0D00FD4E0D009B
:105E6800A14F0D0035500D00B9500D007D510D00AA
:085E780041520D000000000082
:105E8000965C0D0000000000D85D0D00F85D0D006F
:105E9000185E0D000000000000000000000000007F
:105EA00000000000385E0D0000000000000000004F
:105EB00000000000000000000000000000000000E2
:105EC00000000000000000000000000000000000D2
:105ED00000000000000000000000000000000000C2
:085EE000000000005CE3032058
:105EE800FFFFFFFF00000102030405060708090A77
:105EF8000B0C0D0E0F101112131415161718191A72
:085F08001B1C1D1E1F202800B8
:045F10007856341279
:04000003D0004018D1
:00000001FF
